{
  "_format": "hh-sol-artifact-1",
  "contractName": "NFTMarketplace",
  "sourceName": "contracts/NFTMarket.sol",
  "abi": [
    {
      "inputs": [],
      "stateMutability": "nonpayable",
      "type": "constructor"
    },
    {
      "anonymous": false,
      "inputs": [
        {
          "indexed": true,
          "internalType": "address",
          "name": "owner",
          "type": "address"
        },
        {
          "indexed": true,
          "internalType": "address",
          "name": "approved",
          "type": "address"
        },
        {
          "indexed": true,
          "internalType": "uint256",
          "name": "tokenId",
          "type": "uint256"
        }
      ],
      "name": "Approval",
      "type": "event"
    },
    {
      "anonymous": false,
      "inputs": [
        {
          "indexed": true,
          "internalType": "address",
          "name": "owner",
          "type": "address"
        },
        {
          "indexed": true,
          "internalType": "address",
          "name": "operator",
          "type": "address"
        },
        {
          "indexed": false,
          "internalType": "bool",
          "name": "approved",
          "type": "bool"
        }
      ],
      "name": "ApprovalForAll",
      "type": "event"
    },
    {
      "anonymous": false,
      "inputs": [
        {
          "indexed": true,
          "internalType": "uint256",
          "name": "tokenId",
          "type": "uint256"
        },
        {
          "indexed": false,
          "internalType": "address",
          "name": "seller",
          "type": "address"
        },
        {
          "indexed": false,
          "internalType": "address",
          "name": "owner",
          "type": "address"
        },
        {
          "indexed": false,
          "internalType": "uint256",
          "name": "price",
          "type": "uint256"
        },
        {
          "indexed": false,
          "internalType": "bool",
          "name": "sold",
          "type": "bool"
        }
      ],
      "name": "MarketItemCreated",
      "type": "event"
    },
    {
      "anonymous": false,
      "inputs": [
        {
          "indexed": true,
          "internalType": "address",
          "name": "from",
          "type": "address"
        },
        {
          "indexed": true,
          "internalType": "address",
          "name": "to",
          "type": "address"
        },
        {
          "indexed": true,
          "internalType": "uint256",
          "name": "tokenId",
          "type": "uint256"
        }
      ],
      "name": "Transfer",
      "type": "event"
    },
    {
      "inputs": [
        {
          "internalType": "address",
          "name": "to",
          "type": "address"
        },
        {
          "internalType": "uint256",
          "name": "tokenId",
          "type": "uint256"
        }
      ],
      "name": "approve",
      "outputs": [],
      "stateMutability": "nonpayable",
      "type": "function"
    },
    {
      "inputs": [
        {
          "internalType": "address",
          "name": "owner",
          "type": "address"
        }
      ],
      "name": "balanceOf",
      "outputs": [
        {
          "internalType": "uint256",
          "name": "",
          "type": "uint256"
        }
      ],
      "stateMutability": "view",
      "type": "function"
    },
    {
      "inputs": [
        {
          "internalType": "uint256",
          "name": "tokenId",
          "type": "uint256"
        }
      ],
      "name": "cancelItemListing",
      "outputs": [],
      "stateMutability": "nonpayable",
      "type": "function"
    },
    {
      "inputs": [
        {
          "internalType": "uint256",
          "name": "tokenId",
          "type": "uint256"
        }
      ],
      "name": "createMarketSale",
      "outputs": [],
      "stateMutability": "payable",
      "type": "function"
    },
    {
      "inputs": [
        {
          "internalType": "string",
          "name": "tokenURI",
          "type": "string"
        },
        {
          "internalType": "uint256",
          "name": "price",
          "type": "uint256"
        }
      ],
      "name": "createToken",
      "outputs": [
        {
          "internalType": "uint256",
          "name": "",
          "type": "uint256"
        }
      ],
      "stateMutability": "payable",
      "type": "function"
    },
    {
      "inputs": [],
      "name": "fetchItemsListed",
      "outputs": [
        {
          "components": [
            {
              "internalType": "uint256",
              "name": "tokenId",
              "type": "uint256"
            },
            {
              "internalType": "address payable",
              "name": "seller",
              "type": "address"
            },
            {
              "internalType": "address payable",
              "name": "owner",
              "type": "address"
            },
            {
              "internalType": "uint256",
              "name": "price",
              "type": "uint256"
            },
            {
              "internalType": "bool",
              "name": "sold",
              "type": "bool"
            }
          ],
          "internalType": "struct NFTMarketplace.MarketItem[]",
          "name": "",
          "type": "tuple[]"
        }
      ],
      "stateMutability": "view",
      "type": "function"
    },
    {
      "inputs": [],
      "name": "fetchMarketItems",
      "outputs": [
        {
          "components": [
            {
              "internalType": "uint256",
              "name": "tokenId",
              "type": "uint256"
            },
            {
              "internalType": "address payable",
              "name": "seller",
              "type": "address"
            },
            {
              "internalType": "address payable",
              "name": "owner",
              "type": "address"
            },
            {
              "internalType": "uint256",
              "name": "price",
              "type": "uint256"
            },
            {
              "internalType": "bool",
              "name": "sold",
              "type": "bool"
            }
          ],
          "internalType": "struct NFTMarketplace.MarketItem[]",
          "name": "",
          "type": "tuple[]"
        }
      ],
      "stateMutability": "view",
      "type": "function"
    },
    {
      "inputs": [],
      "name": "fetchMyNFTs",
      "outputs": [
        {
          "components": [
            {
              "internalType": "uint256",
              "name": "tokenId",
              "type": "uint256"
            },
            {
              "internalType": "address payable",
              "name": "seller",
              "type": "address"
            },
            {
              "internalType": "address payable",
              "name": "owner",
              "type": "address"
            },
            {
              "internalType": "uint256",
              "name": "price",
              "type": "uint256"
            },
            {
              "internalType": "bool",
              "name": "sold",
              "type": "bool"
            }
          ],
          "internalType": "struct NFTMarketplace.MarketItem[]",
          "name": "",
          "type": "tuple[]"
        }
      ],
      "stateMutability": "view",
      "type": "function"
    },
    {
      "inputs": [
        {
          "internalType": "uint256",
          "name": "tokenId",
          "type": "uint256"
        }
      ],
      "name": "getApproved",
      "outputs": [
        {
          "internalType": "address",
          "name": "",
          "type": "address"
        }
      ],
      "stateMutability": "view",
      "type": "function"
    },
    {
      "inputs": [],
      "name": "getListingPrice",
      "outputs": [
        {
          "internalType": "uint256",
          "name": "",
          "type": "uint256"
        }
      ],
      "stateMutability": "view",
      "type": "function"
    },
    {
      "inputs": [
        {
          "internalType": "address",
          "name": "owner",
          "type": "address"
        },
        {
          "internalType": "address",
          "name": "operator",
          "type": "address"
        }
      ],
      "name": "isApprovedForAll",
      "outputs": [
        {
          "internalType": "bool",
          "name": "",
          "type": "bool"
        }
      ],
      "stateMutability": "view",
      "type": "function"
    },
    {
      "inputs": [],
      "name": "name",
      "outputs": [
        {
          "internalType": "string",
          "name": "",
          "type": "string"
        }
      ],
      "stateMutability": "view",
      "type": "function"
    },
    {
      "inputs": [
        {
          "internalType": "uint256",
          "name": "tokenId",
          "type": "uint256"
        }
      ],
      "name": "ownerOf",
      "outputs": [
        {
          "internalType": "address",
          "name": "",
          "type": "address"
        }
      ],
      "stateMutability": "view",
      "type": "function"
    },
    {
      "inputs": [
        {
          "internalType": "uint256",
          "name": "tokenId",
          "type": "uint256"
        },
        {
          "internalType": "uint256",
          "name": "price",
          "type": "uint256"
        }
      ],
      "name": "resellToken",
      "outputs": [],
      "stateMutability": "payable",
      "type": "function"
    },
    {
      "inputs": [
        {
          "internalType": "address",
          "name": "from",
          "type": "address"
        },
        {
          "internalType": "address",
          "name": "to",
          "type": "address"
        },
        {
          "internalType": "uint256",
          "name": "tokenId",
          "type": "uint256"
        }
      ],
      "name": "safeTransferFrom",
      "outputs": [],
      "stateMutability": "nonpayable",
      "type": "function"
    },
    {
      "inputs": [
        {
          "internalType": "address",
          "name": "from",
          "type": "address"
        },
        {
          "internalType": "address",
          "name": "to",
          "type": "address"
        },
        {
          "internalType": "uint256",
          "name": "tokenId",
          "type": "uint256"
        },
        {
          "internalType": "bytes",
          "name": "data",
          "type": "bytes"
        }
      ],
      "name": "safeTransferFrom",
      "outputs": [],
      "stateMutability": "nonpayable",
      "type": "function"
    },
    {
      "inputs": [
        {
          "internalType": "address",
          "name": "operator",
          "type": "address"
        },
        {
          "internalType": "bool",
          "name": "approved",
          "type": "bool"
        }
      ],
      "name": "setApprovalForAll",
      "outputs": [],
      "stateMutability": "nonpayable",
      "type": "function"
    },
    {
      "inputs": [
        {
          "internalType": "bytes4",
          "name": "interfaceId",
          "type": "bytes4"
        }
      ],
      "name": "supportsInterface",
      "outputs": [
        {
          "internalType": "bool",
          "name": "",
          "type": "bool"
        }
      ],
      "stateMutability": "view",
      "type": "function"
    },
    {
      "inputs": [],
      "name": "symbol",
      "outputs": [
        {
          "internalType": "string",
          "name": "",
          "type": "string"
        }
      ],
      "stateMutability": "view",
      "type": "function"
    },
    {
      "inputs": [
        {
          "internalType": "uint256",
          "name": "tokenId",
          "type": "uint256"
        }
      ],
      "name": "tokenURI",
      "outputs": [
        {
          "internalType": "string",
          "name": "",
          "type": "string"
        }
      ],
      "stateMutability": "view",
      "type": "function"
    },
    {
      "inputs": [
        {
          "internalType": "address",
          "name": "from",
          "type": "address"
        },
        {
          "internalType": "address",
          "name": "to",
          "type": "address"
        },
        {
          "internalType": "uint256",
          "name": "tokenId",
          "type": "uint256"
        }
      ],
      "name": "transferFrom",
      "outputs": [],
      "stateMutability": "nonpayable",
      "type": "function"
    },
    {
      "inputs": [
        {
          "internalType": "uint256",
          "name": "_listingPrice",
          "type": "uint256"
        }
      ],
      "name": "updateListingPrice",
      "outputs": [],
      "stateMutability": "payable",
      "type": "function"
    }
  ],
  "bytecode": "0x608060405266038d7ea4c680006009553480156200001c57600080fd5b506040518060400160405280600781526020017f4c6f6e6965756d000000000000000000000000000000000000000000000000008152506040518060400160405280600281526020017f4c4b00000000000000000000000000000000000000000000000000000000000081525081600090816200009a919062000370565b508060019081620000ac919062000370565b50505033600a60006101000a81548173ffffffffffffffffffffffffffffffffffffffff021916908373ffffffffffffffffffffffffffffffffffffffff16021790555062000457565b600081519050919050565b7f4e487b7100000000000000000000000000000000000000000000000000000000600052604160045260246000fd5b7f4e487b7100000000000000000000000000000000000000000000000000000000600052602260045260246000fd5b600060028204905060018216806200017857607f821691505b6020821081036200018e576200018d62000130565b5b50919050565b60008190508160005260206000209050919050565b60006020601f8301049050919050565b600082821b905092915050565b600060088302620001f87fffffffffffffffffffffffffffffffffffffffffffffffffffffffffffffffff82620001b9565b620002048683620001b9565b95508019841693508086168417925050509392505050565b6000819050919050565b6000819050919050565b6000620002516200024b62000245846200021c565b62000226565b6200021c565b9050919050565b6000819050919050565b6200026d8362000230565b620002856200027c8262000258565b848454620001c6565b825550505050565b600090565b6200029c6200028d565b620002a981848462000262565b505050565b5b81811015620002d157620002c560008262000292565b600181019050620002af565b5050565b601f8211156200032057620002ea8162000194565b620002f584620001a9565b8101602085101562000305578190505b6200031d6200031485620001a9565b830182620002ae565b50505b505050565b600082821c905092915050565b6000620003456000198460080262000325565b1980831691505092915050565b600062000360838362000332565b9150826002028217905092915050565b6200037b82620000f6565b67ffffffffffffffff81111562000397576200039662000101565b5b620003a382546200015f565b620003b0828285620002d5565b600060209050601f831160018114620003e85760008415620003d3578287015190505b620003df858262000352565b8655506200044f565b601f198416620003f88662000194565b60005b828110156200042257848901518255600182019150602085019450602081019050620003fb565b868310156200044257848901516200043e601f89168262000332565b8355505b6001600288020188555050505b505050505050565b6146a080620004676000396000f3fe6080604052600436106101355760003560e01c80636352211e116100ab578063ae677aa31161006f578063ae677aa31461042d578063b88d4fde14610449578063be9af53614610472578063c87b56dd1461048e578063e219fc75146104cb578063e985e9c5146104e757610135565b80636352211e1461032f57806370a082311461036c57806372b3b620146103a957806395d89b41146103d9578063a22cb4651461040457610135565b806312e85585116100fd57806312e8558514610233578063202e37401461025e57806323b872dd14610289578063260070d8146102b257806342842e0e146102db57806345f8fa801461030457610135565b806301ffc9a71461013a57806306fdde0314610177578063081812fc146101a2578063095ea7b3146101df5780630f08efe014610208575b600080fd5b34801561014657600080fd5b50610161600480360381019061015c9190612e40565b610524565b60405161016e9190612e88565b60405180910390f35b34801561018357600080fd5b5061018c610606565b6040516101999190612f33565b60405180910390f35b3480156101ae57600080fd5b506101c960048036038101906101c49190612f8b565b610698565b6040516101d69190612ff9565b60405180910390f35b3480156101eb57600080fd5b5061020660048036038101906102019190613040565b6106de565b005b34801561021457600080fd5b5061021d6107f5565b60405161022a91906131d6565b60405180910390f35b34801561023f57600080fd5b50610248610b01565b6040516102559190613207565b60405180910390f35b34801561026a57600080fd5b50610273610b0b565b60405161028091906131d6565b60405180910390f35b34801561029557600080fd5b506102b060048036038101906102ab9190613222565b610df7565b005b3480156102be57600080fd5b506102d960048036038101906102d49190612f8b565b610e57565b005b3480156102e757600080fd5b5061030260048036038101906102fd9190613222565b6110c2565b005b34801561031057600080fd5b506103196110e2565b60405161032691906131d6565b60405180910390f35b34801561033b57600080fd5b5061035660048036038101906103519190612f8b565b6113ce565b6040516103639190612ff9565b60405180910390f35b34801561037857600080fd5b50610393600480360381019061038e9190613275565b611454565b6040516103a09190613207565b60405180910390f35b6103c360048036038101906103be91906133d7565b61150b565b6040516103d09190613207565b60405180910390f35b3480156103e557600080fd5b506103ee61154d565b6040516103fb9190612f33565b60405180910390f35b34801561041057600080fd5b5061042b6004803603810190610426919061345f565b6115df565b005b61044760048036038101906104429190612f8b565b6115f5565b005b34801561045557600080fd5b50610470600480360381019061046b9190613540565b61168f565b005b61048c60048036038101906104879190612f8b565b6116f1565b005b34801561049a57600080fd5b506104b560048036038101906104b09190612f8b565b61192f565b6040516104c29190612f33565b60405180910390f35b6104e560048036038101906104e091906135c3565b611a41565b005b3480156104f357600080fd5b5061050e60048036038101906105099190613603565b611c36565b60405161051b9190612e88565b60405180910390f35b60007f80ac58cd000000000000000000000000000000000000000000000000000000007bffffffffffffffffffffffffffffffffffffffffffffffffffffffff1916827bffffffffffffffffffffffffffffffffffffffffffffffffffffffff191614806105ef57507f5b5e139f000000000000000000000000000000000000000000000000000000007bffffffffffffffffffffffffffffffffffffffffffffffffffffffff1916827bffffffffffffffffffffffffffffffffffffffffffffffffffffffff1916145b806105ff57506105fe82611cca565b5b9050919050565b60606000805461061590613672565b80601f016020809104026020016040519081016040528092919081815260200182805461064190613672565b801561068e5780601f106106635761010080835404028352916020019161068e565b820191906000526020600020905b81548152906001019060200180831161067157829003601f168201915b5050505050905090565b60006106a382611d34565b6004600083815260200190815260200160002060009054906101000a900473ffffffffffffffffffffffffffffffffffffffff169050919050565b60006106e9826113ce565b90508073ffffffffffffffffffffffffffffffffffffffff168373ffffffffffffffffffffffffffffffffffffffff1603610759576040517f08c379a000000000000000000000000000000000000000000000000000000000815260040161075090613715565b60405180910390fd5b8073ffffffffffffffffffffffffffffffffffffffff16610778611d7f565b73ffffffffffffffffffffffffffffffffffffffff1614806107a757506107a6816107a1611d7f565b611c36565b5b6107e6576040517f08c379a00000000000000000000000000000000000000000000000000000000081526004016107dd906137a7565b60405180910390fd5b6107f08383611d87565b505050565b606060006108036007611e40565b905060006108116008611e40565b61081b6007611e40565b61082591906137f6565b90506000805b838110156108cb573373ffffffffffffffffffffffffffffffffffffffff16600b600060018461085b919061382a565b815260200190815260200160002060010160009054906101000a900473ffffffffffffffffffffffffffffffffffffffff1673ffffffffffffffffffffffffffffffffffffffff16036108b8576001836108b5919061382a565b92505b80806108c39061385e565b91505061082b565b5060008267ffffffffffffffff8111156108e8576108e76132ac565b5b60405190808252806020026020018201604052801561092157816020015b61090e612d77565b8152602001906001900390816109065790505b50905060005b84811015610af6573373ffffffffffffffffffffffffffffffffffffffff16600b6000600184610957919061382a565b815260200190815260200160002060010160009054906101000a900473ffffffffffffffffffffffffffffffffffffffff1673ffffffffffffffffffffffffffffffffffffffff1603610ae35760006001826109b3919061382a565b90506000600b60008381526020019081526020016000209050806040518060a0016040529081600082015481526020016001820160009054906101000a900473ffffffffffffffffffffffffffffffffffffffff1673ffffffffffffffffffffffffffffffffffffffff1673ffffffffffffffffffffffffffffffffffffffff1681526020016002820160009054906101000a900473ffffffffffffffffffffffffffffffffffffffff1673ffffffffffffffffffffffffffffffffffffffff1673ffffffffffffffffffffffffffffffffffffffff168152602001600382015481526020016004820160009054906101000a900460ff161515151581525050848681518110610ac657610ac56138a6565b5b6020026020010181905250600185610ade919061382a565b945050505b8080610aee9061385e565b915050610927565b508094505050505090565b6000600954905090565b60606000610b196007611e40565b905060008060005b83811015610bc1573373ffffffffffffffffffffffffffffffffffffffff16600b6000600184610b51919061382a565b815260200190815260200160002060020160009054906101000a900473ffffffffffffffffffffffffffffffffffffffff1673ffffffffffffffffffffffffffffffffffffffff1603610bae57600183610bab919061382a565b92505b8080610bb99061385e565b915050610b21565b5060008267ffffffffffffffff811115610bde57610bdd6132ac565b5b604051908082528060200260200182016040528015610c1757816020015b610c04612d77565b815260200190600190039081610bfc5790505b50905060005b84811015610dec573373ffffffffffffffffffffffffffffffffffffffff16600b6000600184610c4d919061382a565b815260200190815260200160002060020160009054906101000a900473ffffffffffffffffffffffffffffffffffffffff1673ffffffffffffffffffffffffffffffffffffffff1603610dd9576000600182610ca9919061382a565b90506000600b60008381526020019081526020016000209050806040518060a0016040529081600082015481526020016001820160009054906101000a900473ffffffffffffffffffffffffffffffffffffffff1673ffffffffffffffffffffffffffffffffffffffff1673ffffffffffffffffffffffffffffffffffffffff1681526020016002820160009054906101000a900473ffffffffffffffffffffffffffffffffffffffff1673ffffffffffffffffffffffffffffffffffffffff1673ffffffffffffffffffffffffffffffffffffffff168152602001600382015481526020016004820160009054906101000a900460ff161515151581525050848681518110610dbc57610dbb6138a6565b5b6020026020010181905250600185610dd4919061382a565b945050505b8080610de49061385e565b915050610c1d565b508094505050505090565b610e08610e02611d7f565b82611e4e565b610e47576040517f08c379a0000000000000000000000000000000000000000000000000000000008152600401610e3e90613947565b60405180910390fd5b610e52838383611ee3565b505050565b3373ffffffffffffffffffffffffffffffffffffffff16600b600083815260200190815260200160002060010160009054906101000a900473ffffffffffffffffffffffffffffffffffffffff1673ffffffffffffffffffffffffffffffffffffffff1614610efb576040517f08c379a0000000000000000000000000000000000000000000000000000000008152600401610ef2906139d9565b60405180910390fd5b60001515600b600083815260200190815260200160002060040160009054906101000a900460ff16151514610f65576040517f08c379a0000000000000000000000000000000000000000000000000000000008152600401610f5c90613a6b565b60405180910390fd5b33600b600083815260200190815260200160002060020160006101000a81548173ffffffffffffffffffffffffffffffffffffffff021916908373ffffffffffffffffffffffffffffffffffffffff1602179055506000600b600083815260200190815260200160002060010160006101000a81548173ffffffffffffffffffffffffffffffffffffffff021916908373ffffffffffffffffffffffffffffffffffffffff1602179055506001600b600083815260200190815260200160002060040160006101000a81548160ff02191690831515021790555061104960086121dc565b600a60009054906101000a900473ffffffffffffffffffffffffffffffffffffffff1673ffffffffffffffffffffffffffffffffffffffff166108fc6009549081150290604051600060405180830381858888f193505050501580156110b3573d6000803e3d6000fd5b506110bf303383611ee3565b50565b6110dd8383836040518060200160405280600081525061168f565b505050565b606060006110f06007611e40565b905060008060005b83811015611198573373ffffffffffffffffffffffffffffffffffffffff16600b6000600184611128919061382a565b815260200190815260200160002060010160009054906101000a900473ffffffffffffffffffffffffffffffffffffffff1673ffffffffffffffffffffffffffffffffffffffff160361118557600183611182919061382a565b92505b80806111909061385e565b9150506110f8565b5060008267ffffffffffffffff8111156111b5576111b46132ac565b5b6040519080825280602002602001820160405280156111ee57816020015b6111db612d77565b8152602001906001900390816111d35790505b50905060005b848110156113c3573373ffffffffffffffffffffffffffffffffffffffff16600b6000600184611224919061382a565b815260200190815260200160002060010160009054906101000a900473ffffffffffffffffffffffffffffffffffffffff1673ffffffffffffffffffffffffffffffffffffffff16036113b0576000600182611280919061382a565b90506000600b60008381526020019081526020016000209050806040518060a0016040529081600082015481526020016001820160009054906101000a900473ffffffffffffffffffffffffffffffffffffffff1673ffffffffffffffffffffffffffffffffffffffff1673ffffffffffffffffffffffffffffffffffffffff1681526020016002820160009054906101000a900473ffffffffffffffffffffffffffffffffffffffff1673ffffffffffffffffffffffffffffffffffffffff1673ffffffffffffffffffffffffffffffffffffffff168152602001600382015481526020016004820160009054906101000a900460ff161515151581525050848681518110611393576113926138a6565b5b60200260200101819052506001856113ab919061382a565b945050505b80806113bb9061385e565b9150506111f4565b508094505050505090565b6000806113da836121f2565b9050600073ffffffffffffffffffffffffffffffffffffffff168173ffffffffffffffffffffffffffffffffffffffff160361144b576040517f08c379a000000000000000000000000000000000000000000000000000000000815260040161144290613ad7565b60405180910390fd5b80915050919050565b60008073ffffffffffffffffffffffffffffffffffffffff168273ffffffffffffffffffffffffffffffffffffffff16036114c4576040517f08c379a00000000000000000000000000000000000000000000000000000000081526004016114bb90613b69565b60405180910390fd5b600360008373ffffffffffffffffffffffffffffffffffffffff1673ffffffffffffffffffffffffffffffffffffffff168152602001908152602001600020549050919050565b600061151760076121dc565b60006115236007611e40565b905061152f338261222f565b611539818561244c565b61154381846124b9565b8091505092915050565b60606001805461155c90613672565b80601f016020809104026020016040519081016040528092919081815260200182805461158890613672565b80156115d55780601f106115aa576101008083540402835291602001916115d5565b820191906000526020600020905b8154815290600101906020018083116115b857829003601f168201915b5050505050905090565b6115f16115ea611d7f565b83836126bc565b5050565b3373ffffffffffffffffffffffffffffffffffffffff16600a60009054906101000a900473ffffffffffffffffffffffffffffffffffffffff1673ffffffffffffffffffffffffffffffffffffffff1614611685576040517f08c379a000000000000000000000000000000000000000000000000000000000815260040161167c90613bfb565b60405180910390fd5b8060098190555050565b6116a061169a611d7f565b83611e4e565b6116df576040517f08c379a00000000000000000000000000000000000000000000000000000000081526004016116d690613947565b60405180910390fd5b6116eb84848484612828565b50505050565b6000600b60008381526020019081526020016000206003015490506000600b600084815260200190815260200160002060010160009054906101000a900473ffffffffffffffffffffffffffffffffffffffff169050813414611789576040517f08c379a000000000000000000000000000000000000000000000000000000000815260040161178090613c8d565b60405180910390fd5b33600b600085815260200190815260200160002060020160006101000a81548173ffffffffffffffffffffffffffffffffffffffff021916908373ffffffffffffffffffffffffffffffffffffffff1602179055506001600b600085815260200190815260200160002060040160006101000a81548160ff0219169083151502179055506000600b600085815260200190815260200160002060010160006101000a81548173ffffffffffffffffffffffffffffffffffffffff021916908373ffffffffffffffffffffffffffffffffffffffff16021790555061186d60086121dc565b611878303385611ee3565b600a60009054906101000a900473ffffffffffffffffffffffffffffffffffffffff1673ffffffffffffffffffffffffffffffffffffffff166108fc6009549081150290604051600060405180830381858888f193505050501580156118e2573d6000803e3d6000fd5b508073ffffffffffffffffffffffffffffffffffffffff166108fc349081150290604051600060405180830381858888f19350505050158015611929573d6000803e3d6000fd5b50505050565b606061193a82611d34565b600060066000848152602001908152602001600020805461195a90613672565b80601f016020809104026020016040519081016040528092919081815260200182805461198690613672565b80156119d35780601f106119a8576101008083540402835291602001916119d3565b820191906000526020600020905b8154815290600101906020018083116119b657829003601f168201915b5050505050905060006119e4612884565b905060008151036119f9578192505050611a3c565b600082511115611a2e578082604051602001611a16929190613ce9565b60405160208183030381529060405292505050611a3c565b611a378461289b565b925050505b919050565b3373ffffffffffffffffffffffffffffffffffffffff16600b600084815260200190815260200160002060020160009054906101000a900473ffffffffffffffffffffffffffffffffffffffff1673ffffffffffffffffffffffffffffffffffffffff1614611ae5576040517f08c379a0000000000000000000000000000000000000000000000000000000008152600401611adc90613d7f565b60405180910390fd5b6009543414611b29576040517f08c379a0000000000000000000000000000000000000000000000000000000008152600401611b2090613e11565b60405180910390fd5b6000600b600084815260200190815260200160002060040160006101000a81548160ff02191690831515021790555080600b60008481526020019081526020016000206003018190555033600b600084815260200190815260200160002060010160006101000a81548173ffffffffffffffffffffffffffffffffffffffff021916908373ffffffffffffffffffffffffffffffffffffffff16021790555030600b600084815260200190815260200160002060020160006101000a81548173ffffffffffffffffffffffffffffffffffffffff021916908373ffffffffffffffffffffffffffffffffffffffff160217905550611c276008612903565b611c32333084611ee3565b5050565b6000600560008473ffffffffffffffffffffffffffffffffffffffff1673ffffffffffffffffffffffffffffffffffffffff16815260200190815260200160002060008373ffffffffffffffffffffffffffffffffffffffff1673ffffffffffffffffffffffffffffffffffffffff16815260200190815260200160002060009054906101000a900460ff16905092915050565b60007f01ffc9a7000000000000000000000000000000000000000000000000000000007bffffffffffffffffffffffffffffffffffffffffffffffffffffffff1916827bffffffffffffffffffffffffffffffffffffffffffffffffffffffff1916149050919050565b611d3d8161295f565b611d7c576040517f08c379a0000000000000000000000000000000000000000000000000000000008152600401611d7390613ad7565b60405180910390fd5b50565b600033905090565b816004600083815260200190815260200160002060006101000a81548173ffffffffffffffffffffffffffffffffffffffff021916908373ffffffffffffffffffffffffffffffffffffffff160217905550808273ffffffffffffffffffffffffffffffffffffffff16611dfa836113ce565b73ffffffffffffffffffffffffffffffffffffffff167f8c5be1e5ebec7d5bd14f71427d1e84f3dd0314c0f7b2291e5b200ac8c7c3b92560405160405180910390a45050565b600081600001549050919050565b600080611e5a836113ce565b90508073ffffffffffffffffffffffffffffffffffffffff168473ffffffffffffffffffffffffffffffffffffffff161480611e9c5750611e9b8185611c36565b5b80611eda57508373ffffffffffffffffffffffffffffffffffffffff16611ec284610698565b73ffffffffffffffffffffffffffffffffffffffff16145b91505092915050565b8273ffffffffffffffffffffffffffffffffffffffff16611f03826113ce565b73ffffffffffffffffffffffffffffffffffffffff1614611f59576040517f08c379a0000000000000000000000000000000000000000000000000000000008152600401611f5090613ea3565b60405180910390fd5b600073ffffffffffffffffffffffffffffffffffffffff168273ffffffffffffffffffffffffffffffffffffffff1603611fc8576040517f08c379a0000000000000000000000000000000000000000000000000000000008152600401611fbf90613f35565b60405180910390fd5b611fd583838360016129a0565b8273ffffffffffffffffffffffffffffffffffffffff16611ff5826113ce565b73ffffffffffffffffffffffffffffffffffffffff161461204b576040517f08c379a000000000000000000000000000000000000000000000000000000000815260040161204290613ea3565b60405180910390fd5b6004600082815260200190815260200160002060006101000a81549073ffffffffffffffffffffffffffffffffffffffff02191690556001600360008573ffffffffffffffffffffffffffffffffffffffff1673ffffffffffffffffffffffffffffffffffffffff168152602001908152602001600020600082825403925050819055506001600360008473ffffffffffffffffffffffffffffffffffffffff1673ffffffffffffffffffffffffffffffffffffffff16815260200190815260200160002060008282540192505081905550816002600083815260200190815260200160002060006101000a81548173ffffffffffffffffffffffffffffffffffffffff021916908373ffffffffffffffffffffffffffffffffffffffff160217905550808273ffffffffffffffffffffffffffffffffffffffff168473ffffffffffffffffffffffffffffffffffffffff167fddf252ad1be2c89b69c2b068fc378daa952ba7f163c4a11628f55a4df523b3ef60405160405180910390a46121d783838360016129a6565b505050565b6001816000016000828254019250508190555050565b60006002600083815260200190815260200160002060009054906101000a900473ffffffffffffffffffffffffffffffffffffffff169050919050565b600073ffffffffffffffffffffffffffffffffffffffff168273ffffffffffffffffffffffffffffffffffffffff160361229e576040517f08c379a000000000000000000000000000000000000000000000000000000000815260040161229590613fa1565b60405180910390fd5b6122a78161295f565b156122e7576040517f08c379a00000000000000000000000000000000000000000000000000000000081526004016122de9061400d565b60405180910390fd5b6122f56000838360016129a0565b6122fe8161295f565b1561233e576040517f08c379a00000000000000000000000000000000000000000000000000000000081526004016123359061400d565b60405180910390fd5b6001600360008473ffffffffffffffffffffffffffffffffffffffff1673ffffffffffffffffffffffffffffffffffffffff16815260200190815260200160002060008282540192505081905550816002600083815260200190815260200160002060006101000a81548173ffffffffffffffffffffffffffffffffffffffff021916908373ffffffffffffffffffffffffffffffffffffffff160217905550808273ffffffffffffffffffffffffffffffffffffffff16600073ffffffffffffffffffffffffffffffffffffffff167fddf252ad1be2c89b69c2b068fc378daa952ba7f163c4a11628f55a4df523b3ef60405160405180910390a46124486000838360016129a6565b5050565b6124558261295f565b612494576040517f08c379a000000000000000000000000000000000000000000000000000000000815260040161248b9061409f565b60405180910390fd5b806006600084815260200190815260200160002090816124b4919061426b565b505050565b600081116124fc576040517f08c379a00000000000000000000000000000000000000000000000000000000081526004016124f390614389565b60405180910390fd5b6009543414612540576040517f08c379a000000000000000000000000000000000000000000000000000000000815260040161253790613e11565b60405180910390fd5b6040518060a001604052808381526020013373ffffffffffffffffffffffffffffffffffffffff1681526020013073ffffffffffffffffffffffffffffffffffffffff16815260200182815260200160001515815250600b60008481526020019081526020016000206000820151816000015560208201518160010160006101000a81548173ffffffffffffffffffffffffffffffffffffffff021916908373ffffffffffffffffffffffffffffffffffffffff16021790555060408201518160020160006101000a81548173ffffffffffffffffffffffffffffffffffffffff021916908373ffffffffffffffffffffffffffffffffffffffff1602179055506060820151816003015560808201518160040160006101000a81548160ff021916908315150217905550905050612679333084611ee3565b817fb640004f1d14576d0c209e240cad0410e0d8c0c33a09375861fbadae2588a98d33308460006040516126b094939291906143a9565b60405180910390a25050565b8173ffffffffffffffffffffffffffffffffffffffff168373ffffffffffffffffffffffffffffffffffffffff160361272a576040517f08c379a00000000000000000000000000000000000000000000000000000000081526004016127219061443a565b60405180910390fd5b80600560008573ffffffffffffffffffffffffffffffffffffffff1673ffffffffffffffffffffffffffffffffffffffff16815260200190815260200160002060008473ffffffffffffffffffffffffffffffffffffffff1673ffffffffffffffffffffffffffffffffffffffff16815260200190815260200160002060006101000a81548160ff0219169083151502179055508173ffffffffffffffffffffffffffffffffffffffff168373ffffffffffffffffffffffffffffffffffffffff167f17307eab39ab6107e8899845ad3d59bd9653f200f220920489ca2b5937696c318360405161281b9190612e88565b60405180910390a3505050565b612833848484611ee3565b61283f848484846129ac565b61287e576040517f08c379a0000000000000000000000000000000000000000000000000000000008152600401612875906144cc565b60405180910390fd5b50505050565b606060405180602001604052806000815250905090565b60606128a682611d34565b60006128b0612884565b905060008151116128d057604051806020016040528060008152506128fb565b806128da84612b33565b6040516020016128eb929190613ce9565b6040516020818303038152906040525b915050919050565b6000816000015490506000811161294f576040517f08c379a000000000000000000000000000000000000000000000000000000000815260040161294690614538565b60405180910390fd5b6001810382600001819055505050565b60008073ffffffffffffffffffffffffffffffffffffffff16612981836121f2565b73ffffffffffffffffffffffffffffffffffffffff1614159050919050565b50505050565b50505050565b60006129cd8473ffffffffffffffffffffffffffffffffffffffff16612c01565b15612b26578373ffffffffffffffffffffffffffffffffffffffff1663150b7a026129f6611d7f565b8786866040518563ffffffff1660e01b8152600401612a1894939291906145ad565b6020604051808303816000875af1925050508015612a5457506040513d601f19601f82011682018060405250810190612a51919061460e565b60015b612ad6573d8060008114612a84576040519150601f19603f3d011682016040523d82523d6000602084013e612a89565b606091505b506000815103612ace576040517f08c379a0000000000000000000000000000000000000000000000000000000008152600401612ac5906144cc565b60405180910390fd5b805181602001fd5b63150b7a0260e01b7bffffffffffffffffffffffffffffffffffffffffffffffffffffffff1916817bffffffffffffffffffffffffffffffffffffffffffffffffffffffff191614915050612b2b565b600190505b949350505050565b606060006001612b4284612c24565b01905060008167ffffffffffffffff811115612b6157612b606132ac565b5b6040519080825280601f01601f191660200182016040528015612b935781602001600182028036833780820191505090505b509050600082602001820190505b600115612bf6578080600190039150507f3031323334353637383961626364656600000000000000000000000000000000600a86061a8153600a8581612bea57612be961463b565b5b04945060008503612ba1575b819350505050919050565b6000808273ffffffffffffffffffffffffffffffffffffffff163b119050919050565b600080600090507a184f03e93ff9f4daa797ed6e38ed64bf6a1f0100000000000000008310612c82577a184f03e93ff9f4daa797ed6e38ed64bf6a1f0100000000000000008381612c7857612c7761463b565b5b0492506040810190505b6d04ee2d6d415b85acef81000000008310612cbf576d04ee2d6d415b85acef81000000008381612cb557612cb461463b565b5b0492506020810190505b662386f26fc100008310612cee57662386f26fc100008381612ce457612ce361463b565b5b0492506010810190505b6305f5e1008310612d17576305f5e1008381612d0d57612d0c61463b565b5b0492506008810190505b6127108310612d3c576127108381612d3257612d3161463b565b5b0492506004810190505b60648310612d5f5760648381612d5557612d5461463b565b5b0492506002810190505b600a8310612d6e576001810190505b80915050919050565b6040518060a0016040528060008152602001600073ffffffffffffffffffffffffffffffffffffffff168152602001600073ffffffffffffffffffffffffffffffffffffffff168152602001600081526020016000151581525090565b6000604051905090565b600080fd5b600080fd5b60007fffffffff0000000000000000000000000000000000000000000000000000000082169050919050565b612e1d81612de8565b8114612e2857600080fd5b50565b600081359050612e3a81612e14565b92915050565b600060208284031215612e5657612e55612dde565b5b6000612e6484828501612e2b565b91505092915050565b60008115159050919050565b612e8281612e6d565b82525050565b6000602082019050612e9d6000830184612e79565b92915050565b600081519050919050565b600082825260208201905092915050565b60005b83811015612edd578082015181840152602081019050612ec2565b60008484015250505050565b6000601f19601f8301169050919050565b6000612f0582612ea3565b612f0f8185612eae565b9350612f1f818560208601612ebf565b612f2881612ee9565b840191505092915050565b60006020820190508181036000830152612f4d8184612efa565b905092915050565b6000819050919050565b612f6881612f55565b8114612f7357600080fd5b50565b600081359050612f8581612f5f565b92915050565b600060208284031215612fa157612fa0612dde565b5b6000612faf84828501612f76565b91505092915050565b600073ffffffffffffffffffffffffffffffffffffffff82169050919050565b6000612fe382612fb8565b9050919050565b612ff381612fd8565b82525050565b600060208201905061300e6000830184612fea565b92915050565b61301d81612fd8565b811461302857600080fd5b50565b60008135905061303a81613014565b92915050565b6000806040838503121561305757613056612dde565b5b60006130658582860161302b565b925050602061307685828601612f76565b9150509250929050565b600081519050919050565b600082825260208201905092915050565b6000819050602082019050919050565b6130b581612f55565b82525050565b60006130c682612fb8565b9050919050565b6130d6816130bb565b82525050565b6130e581612e6d565b82525050565b60a08201600082015161310160008501826130ac565b50602082015161311460208501826130cd565b50604082015161312760408501826130cd565b50606082015161313a60608501826130ac565b50608082015161314d60808501826130dc565b50505050565b600061315f83836130eb565b60a08301905092915050565b6000602082019050919050565b600061318382613080565b61318d818561308b565b93506131988361309c565b8060005b838110156131c95781516131b08882613153565b97506131bb8361316b565b92505060018101905061319c565b5085935050505092915050565b600060208201905081810360008301526131f08184613178565b905092915050565b61320181612f55565b82525050565b600060208201905061321c60008301846131f8565b92915050565b60008060006060848603121561323b5761323a612dde565b5b60006132498682870161302b565b935050602061325a8682870161302b565b925050604061326b86828701612f76565b9150509250925092565b60006020828403121561328b5761328a612dde565b5b60006132998482850161302b565b91505092915050565b600080fd5b600080fd5b7f4e487b7100000000000000000000000000000000000000000000000000000000600052604160045260246000fd5b6132e482612ee9565b810181811067ffffffffffffffff82111715613303576133026132ac565b5b80604052505050565b6000613316612dd4565b905061332282826132db565b919050565b600067ffffffffffffffff821115613342576133416132ac565b5b61334b82612ee9565b9050602081019050919050565b82818337600083830152505050565b600061337a61337584613327565b61330c565b905082815260208101848484011115613396576133956132a7565b5b6133a1848285613358565b509392505050565b600082601f8301126133be576133bd6132a2565b5b81356133ce848260208601613367565b91505092915050565b600080604083850312156133ee576133ed612dde565b5b600083013567ffffffffffffffff81111561340c5761340b612de3565b5b613418858286016133a9565b925050602061342985828601612f76565b9150509250929050565b61343c81612e6d565b811461344757600080fd5b50565b60008135905061345981613433565b92915050565b6000806040838503121561347657613475612dde565b5b60006134848582860161302b565b92505060206134958582860161344a565b9150509250929050565b600067ffffffffffffffff8211156134ba576134b96132ac565b5b6134c382612ee9565b9050602081019050919050565b60006134e36134de8461349f565b61330c565b9050828152602081018484840111156134ff576134fe6132a7565b5b61350a848285613358565b509392505050565b600082601f830112613527576135266132a2565b5b81356135378482602086016134d0565b91505092915050565b6000806000806080858703121561355a57613559612dde565b5b60006135688782880161302b565b94505060206135798782880161302b565b935050604061358a87828801612f76565b925050606085013567ffffffffffffffff8111156135ab576135aa612de3565b5b6135b787828801613512565b91505092959194509250565b600080604083850312156135da576135d9612dde565b5b60006135e885828601612f76565b92505060206135f985828601612f76565b9150509250929050565b6000806040838503121561361a57613619612dde565b5b60006136288582860161302b565b92505060206136398582860161302b565b9150509250929050565b7f4e487b7100000000000000000000000000000000000000000000000000000000600052602260045260246000fd5b6000600282049050600182168061368a57607f821691505b60208210810361369d5761369c613643565b5b50919050565b7f4552433732313a20617070726f76616c20746f2063757272656e74206f776e6560008201527f7200000000000000000000000000000000000000000000000000000000000000602082015250565b60006136ff602183612eae565b915061370a826136a3565b604082019050919050565b6000602082019050818103600083015261372e816136f2565b9050919050565b7f4552433732313a20617070726f76652063616c6c6572206973206e6f7420746f60008201527f6b656e206f776e6572206f7220617070726f76656420666f7220616c6c000000602082015250565b6000613791603d83612eae565b915061379c82613735565b604082019050919050565b600060208201905081810360008301526137c081613784565b9050919050565b7f4e487b7100000000000000000000000000000000000000000000000000000000600052601160045260246000fd5b600061380182612f55565b915061380c83612f55565b9250828203905081811115613824576138236137c7565b5b92915050565b600061383582612f55565b915061384083612f55565b9250828201905080821115613858576138576137c7565b5b92915050565b600061386982612f55565b91507fffffffffffffffffffffffffffffffffffffffffffffffffffffffffffffffff820361389b5761389a6137c7565b5b600182019050919050565b7f4e487b7100000000000000000000000000000000000000000000000000000000600052603260045260246000fd5b7f4552433732313a2063616c6c6572206973206e6f7420746f6b656e206f776e6560008201527f72206f7220617070726f76656400000000000000000000000000000000000000602082015250565b6000613931602d83612eae565b915061393c826138d5565b604082019050919050565b6000602082019050818103600083015261396081613924565b9050919050565b7f4f6e6c79206974656d2073656c6c65722063616e20706572666f726d2074686960008201527f73206f7065726174696f6e000000000000000000000000000000000000000000602082015250565b60006139c3602b83612eae565b91506139ce82613967565b604082019050919050565b600060208201905081810360008301526139f2816139b6565b9050919050565b7f4f6e6c792063616e63656c206974656d7320776869636820617265206e6f742060008201527f736f6c6420796574000000000000000000000000000000000000000000000000602082015250565b6000613a55602883612eae565b9150613a60826139f9565b604082019050919050565b60006020820190508181036000830152613a8481613a48565b9050919050565b7f4552433732313a20696e76616c696420746f6b656e2049440000000000000000600082015250565b6000613ac1601883612eae565b9150613acc82613a8b565b602082019050919050565b60006020820190508181036000830152613af081613ab4565b9050919050565b7f4552433732313a2061646472657373207a65726f206973206e6f74206120766160008201527f6c6964206f776e65720000000000000000000000000000000000000000000000602082015250565b6000613b53602983612eae565b9150613b5e82613af7565b604082019050919050565b60006020820190508181036000830152613b8281613b46565b9050919050565b7f4f6e6c79206d61726b6574706c616365206f776e65722063616e20757064617460008201527f65206c697374696e672070726963650000000000000000000000000000000000602082015250565b6000613be5602f83612eae565b9150613bf082613b89565b604082019050919050565b60006020820190508181036000830152613c1481613bd8565b9050919050565b7f506c65617365207375626d6974207468652061736b696e67207072696365206960008201527f6e206f7264657220746f20636f6d706c65746520746865207075726368617365602082015250565b6000613c77604083612eae565b9150613c8282613c1b565b604082019050919050565b60006020820190508181036000830152613ca681613c6a565b9050919050565b600081905092915050565b6000613cc382612ea3565b613ccd8185613cad565b9350613cdd818560208601612ebf565b80840191505092915050565b6000613cf58285613cb8565b9150613d018284613cb8565b91508190509392505050565b7f4f6e6c79206974656d206f776e65722063616e20706572666f726d207468697360008201527f206f7065726174696f6e00000000000000000000000000000000000000000000602082015250565b6000613d69602a83612eae565b9150613d7482613d0d565b604082019050919050565b60006020820190508181036000830152613d9881613d5c565b9050919050565b7f5072696365206d75737420626520657175616c20746f206c697374696e67207060008201527f7269636500000000000000000000000000000000000000000000000000000000602082015250565b6000613dfb602483612eae565b9150613e0682613d9f565b604082019050919050565b60006020820190508181036000830152613e2a81613dee565b9050919050565b7f4552433732313a207472616e736665722066726f6d20696e636f72726563742060008201527f6f776e6572000000000000000000000000000000000000000000000000000000602082015250565b6000613e8d602583612eae565b9150613e9882613e31565b604082019050919050565b60006020820190508181036000830152613ebc81613e80565b9050919050565b7f4552433732313a207472616e7366657220746f20746865207a65726f2061646460008201527f7265737300000000000000000000000000000000000000000000000000000000602082015250565b6000613f1f602483612eae565b9150613f2a82613ec3565b604082019050919050565b60006020820190508181036000830152613f4e81613f12565b9050919050565b7f4552433732313a206d696e7420746f20746865207a65726f2061646472657373600082015250565b6000613f8b602083612eae565b9150613f9682613f55565b602082019050919050565b60006020820190508181036000830152613fba81613f7e565b9050919050565b7f4552433732313a20746f6b656e20616c7265616479206d696e74656400000000600082015250565b6000613ff7601c83612eae565b915061400282613fc1565b602082019050919050565b6000602082019050818103600083015261402681613fea565b9050919050565b7f45524337323155524953746f726167653a2055524920736574206f66206e6f6e60008201527f6578697374656e7420746f6b656e000000000000000000000000000000000000602082015250565b6000614089602e83612eae565b91506140948261402d565b604082019050919050565b600060208201905081810360008301526140b88161407c565b9050919050565b60008190508160005260206000209050919050565b60006020601f8301049050919050565b600082821b905092915050565b6000600883026141217fffffffffffffffffffffffffffffffffffffffffffffffffffffffffffffffff826140e4565b61412b86836140e4565b95508019841693508086168417925050509392505050565b6000819050919050565b600061416861416361415e84612f55565b614143565b612f55565b9050919050565b6000819050919050565b6141828361414d565b61419661418e8261416f565b8484546140f1565b825550505050565b600090565b6141ab61419e565b6141b6818484614179565b505050565b5b818110156141da576141cf6000826141a3565b6001810190506141bc565b5050565b601f82111561421f576141f0816140bf565b6141f9846140d4565b81016020851015614208578190505b61421c614214856140d4565b8301826141bb565b50505b505050565b600082821c905092915050565b600061424260001984600802614224565b1980831691505092915050565b600061425b8383614231565b9150826002028217905092915050565b61427482612ea3565b67ffffffffffffffff81111561428d5761428c6132ac565b5b6142978254613672565b6142a28282856141de565b600060209050601f8311600181146142d557600084156142c3578287015190505b6142cd858261424f565b865550614335565b601f1984166142e3866140bf565b60005b8281101561430b578489015182556001820191506020850194506020810190506142e6565b868310156143285784890151614324601f891682614231565b8355505b6001600288020188555050505b505050505050565b7f5072696365206d7573742062652067726561746572207468616e207a65726f00600082015250565b6000614373601f83612eae565b915061437e8261433d565b602082019050919050565b600060208201905081810360008301526143a281614366565b9050919050565b60006080820190506143be6000830187612fea565b6143cb6020830186612fea565b6143d860408301856131f8565b6143e56060830184612e79565b95945050505050565b7f4552433732313a20617070726f766520746f2063616c6c657200000000000000600082015250565b6000614424601983612eae565b915061442f826143ee565b602082019050919050565b6000602082019050818103600083015261445381614417565b9050919050565b7f4552433732313a207472616e7366657220746f206e6f6e20455243373231526560008201527f63656976657220696d706c656d656e7465720000000000000000000000000000602082015250565b60006144b6603283612eae565b91506144c18261445a565b604082019050919050565b600060208201905081810360008301526144e5816144a9565b9050919050565b7f436f756e7465723a2064656372656d656e74206f766572666c6f770000000000600082015250565b6000614522601b83612eae565b915061452d826144ec565b602082019050919050565b6000602082019050818103600083015261455181614515565b9050919050565b600081519050919050565b600082825260208201905092915050565b600061457f82614558565b6145898185614563565b9350614599818560208601612ebf565b6145a281612ee9565b840191505092915050565b60006080820190506145c26000830187612fea565b6145cf6020830186612fea565b6145dc60408301856131f8565b81810360608301526145ee8184614574565b905095945050505050565b60008151905061460881612e14565b92915050565b60006020828403121561462457614623612dde565b5b6000614632848285016145f9565b91505092915050565b7f4e487b7100000000000000000000000000000000000000000000000000000000600052601260045260246000fdfea26469706673582212209deb485e92eafc07716da5bbf757390295f70f2c890c6a9ebadf4a959ae7ee5e64736f6c63430008120033",
  "linkReferences": {},
  "deployedLinkReferences": {}
}